:1000000013C10000EBC30000BEC3000091C3000099
:1000100064C3000037C300000AC30000DDC2000053
:10002000B0C2000020C100001EC100001CC10000C1
:100030001AC1000018C1000016C1000014C1000060
:1000400012C1000010C100000EC100000CC1000070
:10005000F0C3000008C1000006C1000048C2000053
:1000600002C1000000C10000FEC00000FCC0000092
:10007000FAC00000F8C00000F6C00000F4C00000A4
:10008000F2C00000F0C00000EEC00000ECC00000B4
:10009000EAC00000E8C00000E6C00000E4C00000C4
:1000A000E2C00000E0C00000DEC00000DCC00000D4
:1000B000DAC00000D8C00000D6C00000D4C00000E4
:1000C000D2C00000D0C00000CEC00000CCC00000F4
:1000D000CAC00000C8C00000C6C00000C4C0000004
:1000E000C2C000004E015101400144014A01880193
:1000F000550159015F01630167016D0171017501CE
:1001000088017B017F01830100002000230026007D
:1001100029002C002F00320000010000030106011D
:10012000090100002100240027002A002D003000D2
:10013000330001010000040107010A010000220050
:10014000250028002B002E003100340002010000A1
:10015000050108010B010505050507050808080844
:10016000020202020A0A080804040404010101014F
:10017000010101010303030303030303040707074A
:100180000C0C0C0C0C0C0C0C0202020206060606EF
:10019000060606060B0B0B0B0B0B0B0B01021020BC
:1001A00020080810204010204080020102010804AD
:1001B0000201010204081020408080402010080441
:1001C000020180040201804020100804020108049A
:1001D00002010102040810204080010204081020DE
:1001E000408000000A0B02090C0D0E0807030401F1
:1001F00000000000000000000000000000000000FF
:1002000000000000000000000000000000001211CB
:1002100010000000000000000000000000000000CE
:10022000000000000000000011241FBECFEFD1E24B
:10023000DEBFCDBF00E00CBF12E0A0E0B2E0E2E51F
:10024000FAE000E00BBF02C007900D92A031B107A9
:10025000D9F722E0A0E1B2E001C01D92A132B207BD
:10026000E1F712D3F4C3CCCE90E0FC013197E23138
:10027000F10508F04DC08827EE58FF4F8F4FDFC3C0
:10028000809180008F7703C0809180008F7D809364
:100290008000089580918000877FF9CF84B58F77A3
:1002A00002C084B58F7D84BD08958091B0008F77A2
:1002B00003C08091B0008F7D8093B000089580913D
:1002C00090008F7707C0809190008F7D03C0809150
:1002D0009000877F8093900008958091A0008F7791
:1002E00007C08091A0008F7D03C08091A000877F10
:1002F0008093A0000895809120018F7707C080919E
:1003000020018F7D03C080912001877F8093200191
:1003100008951F93CF93DF93282F30E0F901EE511A
:10032000FE4F8491F901E456FE4FD491F901EA5A47
:10033000FE4FC491CC23B9F0162F811195DFEC2F1D
:10034000F0E0EE0FFF1FE45CFE4FA591B4919FB764
:10035000F894111104C08C91D095D82302C0EC916F
:10036000DE2BDC939FBFDF91CF911F910895CF9338
:10037000DF9390E0FC01E456FE4F2491FC01EA5A21
:10038000FE4F8491882361F190E0880F991FFC0152
:10039000EE5DFE4FC591D491FC01E45CFE4FA5914A
:1003A000B491611109C09FB7F89488812095822388
:1003B0008883EC912E230BC0623061F49FB7F894D0
:1003C0008881322F309583238883EC912E2B2C93B8
:1003D0009FBF06C08FB7F894E8812E2B28838FBF6C
:1003E000DF91CF910895089580918100887F809357
:1003F0008100809110029091110201969093110258
:10040000809310028F30910579F01CF4049761F00D
:100410000DC08B34910541F08436910539F410926A
:1004200011021092100205C061E001C060E084E09A
:1004300070DF80916F008E7F80936F0083B5816045
:1004400083BD8FB780931502F894109285001092A7
:100450008400809115028FBF9091810080911402D9
:10046000892B809381008FB780931502F894809137
:10047000840090918500209115022FBF892B99F35C
:1004800084E0809314028FB780931502F89482E180
:100490009AE79093130280931202909387008093BF
:1004A0008600809115028FBF80918100887F8093A4
:1004B00081009091810080911402982B909381008B
:1004C0002FE632E0309317022093160291E09093CA
:1004D0006F0090918100892B809381000895E1E85D
:1004E000F0E08081887F808361E085E012CF1F92F9
:1004F0000F920FB60F9211242F933F938F939F93D8
:10050000AF93BF9380911D0290911E02A0911F0294
:10051000B091200230911C0223E0230F2D3720F4EC
:100520000196A11DB11D05C026E8230F0296A11D4D
:10053000B11D20931C0280931D0290931E02A09374
:100540001F02B09320028091180290911902A0918D
:100550001A02B0911B020196A11DB11D80931802D1
:1005600090931902A0931A02B0931B02BF91AF910E
:100570009F918F913F912F910F900FBE0F901F90E1
:1005800018951F920F920FB60F9211240BB60F926F
:100590002F933F934F935F936F937F938F939F938B
:1005A000AF93BF93EF93FF93E0910E02F0910F0290
:1005B0001995FF91EF91BF91AF919F918F917F918D
:1005C0006F915F914F913F912F910F900BBE0F90C4
:1005D0000FBE0F901F9018951F920F920FB60F929B
:1005E00011240BB60F922F933F934F935F936F930A
:1005F0007F938F939F93AF93BF93EF93FF93E0917C
:100600000C02F0910D021995FF91EF91BF91AF91FE
:100610009F918F917F916F915F914F913F912F911A
:100620000F900BBE0F900FBE0F901F9018951F924A
:100630000F920FB60F9211240BB60F922F933F9388
:100640004F935F936F937F938F939F93AF93BF93DA
:10065000EF93FF93E0910202F09103021995FF914D
:10066000EF91BF91AF919F918F917F916F915F912A
:100670004F913F912F910F900BBE0F900FBE0F9097
:100680001F9018951F920F920FB60F9211240BB660
:100690000F922F933F934F935F936F937F938F931B
:1006A0009F93AF93BF93EF93FF93E0910002F0917C
:1006B00001021995FF91EF91BF91AF919F918F9199
:1006C0007F916F915F914F913F912F910F900BBE52
:1006D0000F900FBE0F901F9018951F920F920FB69C
:1006E0000F9211240BB60F922F933F934F935F936A
:1006F0006F937F938F939F93AF93BF93EF93FF93EA
:10070000E0910A02F0910B021995FF91EF91BF91D0
:10071000AF919F918F917F916F915F914F913F9199
:100720002F910F900BBE0F900FBE0F901F9018953A
:100730001F920F920FB60F9211240BB60F922F93A8
:100740003F934F935F936F937F938F939F93AF9359
:10075000BF93EF93FF93E0910802F091090219957E
:10076000FF91EF91BF91AF919F918F917F916F9189
:100770005F914F913F912F910F900BBE0F900FBE45
:100780000F901F9018951F920F920FB60F92112481
:100790000BB60F922F933F934F935F936F937F937B
:1007A0008F939F93AF93BF93EF93FF93E0910602D4
:1007B000F09107021995FF91EF91BF91AF919F9131
:1007C0008F917F916F915F914F913F912F910F90FA
:1007D0000BBE0F900FBE0F901F9018951F920F9297
:1007E0000FB60F9211240BB60F922F933F934F9396
:1007F0005F936F937F938F939F93AF93BF93EF9389
:10080000FF93E0910402F09105021995FF91EF9199
:10081000BF91AF919F918F917F916F915F914F9118
:100820003F912F910F900BBE0F900FBE0F901F9016
:1008300018951F920F920FB60F9211240BB60F92BC
:100840002F933F934F935F936F937F938F939F93D8
:10085000AF93BF93EF93FF93E0911602F0911702CD
:100860001995FF91EF91BF91AF919F918F917F91DA
:100870006F915F914F913F912F910F900BBE0F9011
:100880000FBE0F901F901895789484B5826084BD38
:1008900084B5816084BD85B5826085BD85B5816084
:1008A00085BD80916E00816080936E001092810002
:1008B00080918100826080938100809181008160BD
:1008C000809381008091800081608093800080917E
:1008D000B10084608093B1008091B000816080930A
:1008E000B00080919100826080939100809191008E
:1008F000816080939100809190008160809390004E
:100900008091A10082608093A1008091A10081600C
:100910008093A1008091A00081608093A0008091CD
:100920002101826080932101809121018160809367
:1009300021018091200181608093200180917A00C3
:10094000846080937A0080917A00826080937A003C
:1009500080917A00816080937A0080917A0080682B
:1009600080937A001092C10060E083E000DD61E0D6
:1009700084E0FDDC61E085E0FADC1092800080E13B
:100980008093810084E0809314028FB780931502D6
:10099000F89482E19AE79093130280931202909365
:1009A000870080938600809115028FBF809181001F
:1009B000887F809381009091810080911402892B1F
:1009C0008093810084EF91E0909301028093000274
:1009D00080916A008C7F826080936A00EC9A80919B
:1009E0008100887F80938100C5EED1E00FE911E09E
:1009F00099E5E92E91E0F92E20E0C22E20E0D22EDA
:100A0000FE018491F801A490F701B490BB2099F005
:100A100081112ADCEB2DF0E0EE0FFF1FE85FFE4FA7
:100A2000A591B4918C918A2131F0C114D10441F384
:100A30000E940000E5CF60E085E06BDCF6CFEE0FB2
:100A4000FF1F881F8BBF0790F691E02D1994F89433
:020A5000FFCFD6
:100A5200F301F301F301F301F301F301F301F301F4
:00000001FF
