:1000000013C1000023C1000021C100001FC1000076
:100010001DC100001BC1000019C1000017C1000074
:1000200015C1000013C1000011C100000FC1000084
:100030000DC100000BC1000009C1000007C1000094
:1000400005C1000003C1000001C10000FFC00000A5
:10005000EEC10000FBC00000F9C000009EC100001E
:10006000F5C00000F3C00000F1C00000EFC00000C8
:10007000EDC00000EBC00000E9C00000E7C00000D8
:10008000E5C00000E3C00000E1C00000DFC00000E8
:10009000DDC00000DBC00000D9C00000D7C00000F8
:1000A000D5C00000D3C00000D1C00000CFC0000008
:1000B000CDC00000CBC00000C9C00000C7C0000018
:1000C000C5C00000C3C00000C1C00000BFC0000028
:1000D000BDC00000BBC00000B9C00000B7C0000038
:1000E000B5C0000041014401330137013D017B01EE
:1000F00048014C01520156015A0160016401680136
:100100007B016E01720176010000200023002600B1
:1001100029002C002F00320000010000030106011D
:10012000090100000A0B02090C0D0E080703040167
:1001300000000000000000000000000000000000BF
:10014000000000000000000000000000000012118C
:10015000100000000000000000000000000000008F
:100160000000000000000000000022002500280020
:100170002B002E00310034000201000005010801AF
:100180000B0100002100240027002A002D00300070
:10019000330001010000040107010A0105050505FE
:1001A000070508080808020202020A0A08080404EF
:1001B000040401010101010101010303030303031D
:1001C0000303040707070C0C0C0C0C0C0C0C0202AC
:1001D000020206060606060606060B0B0B0B0B0BA9
:1001E0000B0B010210202008081020401020408036
:1001F00002010201080402010102040810204080EB
:100200008040201008040201800402018040201078
:1002100008040201080402010102040810204080C1
:10022000010204081020408011241FBECFEFD1E24C
:10023000DEBFCDBF00E00CBF22E0A0E0B2E001C015
:100240001D92AF30B207E1F71DD1E9C1D9CE90E0E0
:10025000FC013197E231F10508F04DC08827EE58D6
:10026000FF4F8F4FD4C1809180008F7703C0809162
:1002700080008F7D80938000089580918000877F2B
:10028000F9CF84B58F7702C084B58F7D84BD089582
:100290008091B0008F7703C08091B0008F7D8093F4
:1002A000B0000895809190008F7707C080919000F2
:1002B0008F7D03C080919000877F80939000089588
:1002C0008091A0008F7707C08091A0008F7D03C030
:1002D0008091A000877F8093A000089580912001E5
:1002E0008F7707C0809120018F7D03C0809120010E
:1002F000877F809320010895CF92DF92EF92FF9243
:100300000F931F93CF93DF932FE2E22E21E0F22E83
:10031000F70184910FEE11E0F801C490C9EAD1E031
:10032000FE01D490DD2089F0811191DFED2DF0E008
:10033000EE0FFF1FE85FFE4FA591B4918C918C21C9
:1003400091E009F490E0D92E01C0D12CF7018491FD
:10035000F8010491FE01C491CC23B1F0811177DF43
:10036000EC2FF0E0EE0FFF1FE859FE4FA591B4917E
:100370009FB7F894F1E08C91DF1203C00095082339
:1003800001C0082B0C939FBFDF91CF911F910F915C
:10039000FF90EF90DF90CF9008951F920F920FB6CD
:1003A0000F9211242F933F938F939F93AF93BF93FB
:1003B00080910B0290910C02A0910D02B0910E025F
:1003C00030910A0223E0230F2D3720F40196A11D5E
:1003D000B11D05C026E8230F0296A11DB11D209373
:1003E0000A0280930B0290930C02A0930D02B0932B
:1003F0000E028091060290910702A0910802B0912E
:1004000009020196A11DB11D809306029093070277
:10041000A0930802B0930902BF91AF919F918F9171
:100420003F912F910F900FBE0F901F9018951F9224
:100430000F920FB60F9211240BB60F922F933F938A
:100440004F935F936F937F938F939F93AF93BF93DC
:10045000EF93FF93E0910402F09105021995FF914B
:10046000EF91BF91AF919F918F917F916F915F912C
:100470004F913F912F910F900BBE0F900FBE0F9099
:100480001F901895789484B5826084BD84B581608E
:1004900084BD85B5826085BD85B5816085BD80914F
:1004A0006E00816080936E001092810080918100C7
:1004B00082608093810080918100816080938100BF
:1004C000809180008160809380008091B100846081
:1004D0008093B1008091B00081608093B0008091E2
:1004E000910082608093910080919100816080935F
:1004F0009100809190008160809390008091A10094
:1005000082608093A1008091A10081608093A1000E
:100510008091A00081608093A00080912101826081
:10052000809321018091210181608093210180913C
:10053000200181608093200180917A008460809303
:100540007A0080917A00826080937A0080917A00AC
:10055000816080937A0080917A00806880937A002D
:100560001092C100EFEEF1E02491E9EAF1E084910C
:10057000882399F090E0880F991FFC01EE57FE4FF9
:10058000A591B491FC01E859FE4F859194918FB7E4
:10059000F894EC91E22BEC938FBF1092800080E1F5
:1005A0008093810083E0809302028FB780930302DF
:1005B000F89484ED90E3909301028093000290936D
:1005C000870080938600809103028FBF8091810015
:1005D000887F809381009091810080910202982B06
:1005E000909381002CE731E03093050220930402C0
:1005F00091E090936F0090918100892B809381000E
:10060000C0E0D0E02097F1F30E940000FBCFEE0F96
:10061000FF1F881F8BBF0790F691E02D1994F89467
:02062000FFCF0A
:00000001FF
