:1000000019C1000045C1000043C1000041C100000A
:100010003FC100003DC100003BC1000039C10000EC
:1000200037C1000035C1000033C1000031C10000FC
:100030002FC100002DC100002BC1000029C100000C
:1000400027C1000025C1000023C1000021C100001C
:100050001FC100001DC100001BC100000BC3000038
:1000600017C100007AC300004FC3000011C1000097
:100070000FC100000DC100000BC1000009C100004C
:1000800007C1000005C1000003C1000001C100005C
:10009000FFC00000FDC00000FBC00000F9C0000070
:1000A000F7C00000F5C00000F3C00000F1C0000080
:1000B000EFC00000EDC00000EBC00000E9C0000090
:1000C000E7C00000E5C00000E3C00000E1C00000A0
:1000D000DFC00000DDC00000DBC00000D9C00000B0
:1000E000D7C0000073017601650169016D01AD01A2
:1000F0007A017E01840188018C01920196019A01A6
:10010000AD01A001A401A801910596059B05A505D7
:10011000AF052806B905C105C905D305DD05E70505
:10012000F605000628060A0614061E060000210031
:10013000240027002A002D003000330001010000B8
:10014000040107010A0100002200250028002B00FD
:100150002E003100340002010000050108010B01EE
:1001600005050505070508080808020202020A0A33
:100170000808040404040101010101010101030351
:10018000030303030303040707070C0C0C0C0C0CFC
:100190000C0C0202020206060606060606060B0BF9
:1001A0000B0B0B0B0B0B010210202008081020403A
:1001B000102040800201020108040201010204082B
:1001C00010204080804020100804020180040201B9
:1001D0008040201008040201080402010102040802
:1001E00010204080010204081020408000000A0B0B
:1001F00002090C0D0E0807030401000000000000B6
:1002000000000000000000000000000000000000EE
:1002100000000000000000001211100000000000AB
:1002200000000000000000000000000000000000CE
:100230000000300611241FBECFEFD1E2DEBFCDBFDC
:1002400000E00CBF12E0A0E0B2E0EAE5F1E100E07E
:100250000BBF02C007900D92A431B107D9F722E07D
:10026000A4E1B2E001C01D92AA3CB207E1F711E09F
:10027000CAE1D1E000E005C021970109802FFE010D
:1002800058D7C931D10780E00807B1F79CD263C7BE
:10029000B7CE382FE6EFF1E04491E0EBF1E02491A6
:1002A000EAE6F1E09491992309F46BC0442309F440
:1002B00054C050E0FA013197E231F10508F04DC029
:1002C0008827EE58FF4F8F4F34C7809180008F777B
:1002D00007C0809180008F7D03C080918000877F60
:1002E000809380003AC084B58F7702C084B58F7D3B
:1002F00084BD33C08091B0008F7703C08091B0007F
:100300008F7D8093B00029C0809190008F7707C0C7
:10031000809190008F7D03C080919000877F8093B3
:1003200090001BC08091A0008F7707C08091A00033
:100330008F7D03C08091A000877F8093A0000DC0B7
:10034000809120018F7707C0809120018F7D03C0AD
:1003500080912001877F80932001E92FF0E0EE0F4C
:10036000FF1FEA5BFE4FA591B4919FB7F89431113E
:1003700004C08C912095282302C0EC912E2B2C9345
:100380009FBF0895CF93DF9390E0FC01EA55FE4FA5
:100390002491FC01E05AFE4F8491882361F190E0A2
:1003A000880F991FFC01E45DFE4FC591D491FC01BB
:1003B000EA5BFE4FA591B491611109C09FB7F89413
:1003C0008881209582238883EC912E230BC0623094
:1003D00061F49FB7F8948881322F30958323888306
:1003E000EC912E2B2C939FBF06C08FB7F894E88119
:1003F0002E2B28838FBFDF91CF910895CF92DF926C
:10040000EF92FF920F931F93CF93DF936C017A01CA
:100410008B01C0E0D0E0CE15DF0581F0D8016D91F1
:100420008D01D601ED91FC910190F081E02DC60186
:100430001995892B11F02196EECF7E01C701DF912E
:10044000CF911F910F91FF90EF90DF90CF90089583
:10045000089580E090E00895FC01538D448D252F90
:1004600030E0842F90E0821B930B541710F0CF964E
:10047000089501970895FC01918D828D981761F080
:10048000828DDF01A80FB11D5D968C91928D9F5FCB
:100490009F73928F90E008958FEF9FEF0895FC0176
:1004A000918D828D981731F0828DE80FF11D858D29
:1004B00090E008958FEF9FEF0895FC01918D228DBC
:1004C000892F90E0805C9F4F821B91098F73992741
:1004D000089584E192E0F1DF21E0892B09F420E026
:1004E000822F0895FC01848DDF01A80FB11DA35A4E
:1004F000BF4F2C91848D90E001968F739927848F44
:10050000A689B7892C93A089B1898C918370806466
:100510008C93938D848D981306C00288F389E02D07
:1005200080818F7D80830895EF92FF920F931F93B8
:10053000CF93DF93EC0181E0888F9B8D8C8D981396
:1005400005C0E889F989808185FD25C0F62E0B8DCF
:1005500010E00F5F1F4F0F731127E02E8C8DE812F4
:100560000BC00FB607FCFACFE889F989808185FFB7
:10057000F5CFCE01B7DFF2CF8B8DFE01E80FF11D75
:10058000E35AFF4FF0829FB7F8940B8FEA89FB89FB
:10059000808180620AC09FB7F894EE89FF896083EA
:1005A000E889F98980818370806480839FBF81E0BE
:1005B00090E0DF91CF911F910F91FF90EF90089500
:1005C000CF93DF93EC01888D8823C1F0EA89FB8902
:1005D000808185FD05C0A889B9898C9186FD0EC0F2
:1005E0000FB607FCF5CF808185FFF2CFA889B989C6
:1005F0008C9185FFEDCFCE0175DFE8CFDF91CF91F4
:10060000089580E090E0892B19F063DF811125C007
:1006100080E090E0892B41F080E090E0892B21F090
:100620000E94000081111CC080E090E0892B41F005
:1006300080E090E0892B21F00E940000811113C01E
:1006400080E090E0892BA1F080E090E0892B81F0A0
:100650000E94000081110AC008950E940000D8CFB6
:100660000E940000E1CF0E940000EACF0C9400003D
:1006700008956DD51F920F920FB60F9211242F93EC
:100680003F938F939F93AF93BF938091C6029091B6
:10069000C702A091C802B091C9023091C50223E0FF
:1006A000230F2D3720F40196A11DB11D05C026E8AA
:1006B000230F0296A11DB11D2093C5028093C6028F
:1006C0009093C702A093C802B093C9028091C1025F
:1006D0009091C202A091C302B091C4020196A11DE3
:1006E000B11D8093C1029093C202A093C302B09344
:1006F000C402BF91AF919F918F913F912F910F9025
:100700000FBE0F901F9018951F920F920FB60F9269
:1007100011240BB60F922F933F934F935F936F93D8
:100720007F938F939F93AF93BF93EF93FF9384E156
:1007300092E0D8DEFF91EF91BF91AF919F918F91A1
:100740007F916F915F914F913F912F910F900BBED1
:100750000F900FBE0F901F9018951F920F920FB61B
:100760000F9211240BB60F922F938F939F93EF93B9
:10077000FF93E0912402F09125028081E0912A020A
:10078000F0912B0282FD12C0908180912D028F5F2B
:100790008F7320912E02821751F0E0912D02F0E02C
:1007A000EC5EFD4F958F80932D0201C08081FF91FB
:1007B000EF919F918F912F910F900BBE0F900FBED5
:1007C0000F901F901895CF93DF9300D01F92CDB755
:1007D000DEB7789484B5826084BD84B5816084BDC1
:1007E00085B5826085BD85B5816085BD80916E00CF
:1007F000816080936E001092810080918100826000
:10080000809381008091810081608093810080913C
:1008100080008160809380008091B100846080932B
:10082000B1008091B00081608093B0008091910010
:10083000826080939100809191008160809391000B
:10084000809190008160809390008091A1008260EF
:100850008093A1008091A10081608093A10080918C
:10086000A00081608093A00080912101826080932C
:1008700021018091210181608093210180912001DB
:1008800081608093200180917A00846080937A0057
:1008900080917A00826080937A0080917A008160F2
:1008A00080937A0080917A00806880937A00109219
:1008B000C100E0912402F091250282E08083E09162
:1008C0002002F09121021082E0912202F091230295
:1008D0008FEC808310922C02E0912802F091290283
:1008E00086E08083E0912602F0912702808180617A
:1008F0008083E0912602F0912702808188608083C6
:10090000E0912602F0912702808180688083E09147
:100910002602F091270280818F7D808360E086E34C
:1009200031DD61E08AE02EDD10E486EF282E81E0E3
:10093000382E80917B00877F80937B0010937C0012
:1009400080917A00806480937A0080917A0086FD9D
:10095000FCCFA091780080917900B0E0B82B24E61C
:1009600030E0EFD32FEF33E040E050E0A6D1CA01F2
:10097000B901F0D26B017C019B01AC0160E070E039
:1009800080EF91E4E7D16093BD027093BE02809343
:10099000BF029093C0022FB7F8948091C602909145
:1009A000C702A091C802B091C9022FBF8090B902BE
:1009B0009090BA02A090BB02B090BC02BC01CD01E5
:1009C000681979098A099B09C3D220E030E04AE717
:1009D00054E425D22B013C012FB7F8948091C60234
:1009E0009091C702A091C802B091C9022FBF809315
:1009F000B9029093BA02A093BB02B093BC0280905C
:100A0000BD029090BE02A090BF02B090C00220E054
:100A100030E040E151E4C501B40128D3A3019201C3
:100A200025D32091B5023091B6024091B702509182
:100A3000B80291D169837A838B839C836093B502DA
:100A40007093B6028093B7029093B802A701960103
:100A50006091B1027091B2028091B3029091B402A0
:100A600079D120E030E040E251E400D3A3019201CB
:100A7000FDD22B013C01C092B102D092B202E092B1
:100A8000B302F092B40220E030E040E951E4C50145
:100A9000B401ECD229813A814B815C815CD1A30104
:100AA000920159D120E030E048E452E454D11FD201
:100AB00077FD05C0709301026093000204C010929C
:100AC00001021092000280910002909101028F3F7A
:100AD000910534F08EEF90E0909301028093000234
:100AE000E0900002F090010261E08AE04BDCE1144A
:100AF000F10411F480E005C09FEFE916F10419F448
:100B000081E0C7DBABC0F101849190E0FC0131973B
:100B1000E231F10508F09CC08827EC57FF4F8F4F5A
:100B200008C384B5806884BDE7BC98C084B5806282
:100B300084BDE8BC93C08091800080688093800071
:100B4000F0928900E092880089C0809180008062E4
:100B500080938000F0928B00E0928A007FC08091A9
:100B60008000886080938000F0928D00E0928C007D
:100B700075C08091B00080688093B000E092B300AF
:100B80006DC08091B00080628093B000E092B400AC
:100B900065C080919000806880939000F0929900E9
:100BA000E09298005BC080919000806280939000FA
:100BB000F0929B00E0929A0051C080919000886072
:100BC00080939000F0929D00E0929C0047C080913D
:100BD000A00080688093A0008091A0008F7B80930C
:100BE000A000F092A900E092A80038C08091A00077
:100BF00080628093A000F092AB00E092AA002EC029
:100C00008091A00088608093A000F092AD00E092F7
:100C1000AC0024C080912001806880932001F09274
:100C20002901E09228011AC08091200180628093FE
:100C30002001F0922B01E0922A0110C08091200146
:100C4000886080932001F0922D01E0922C0106C073
:100C5000F0E8EF16F1040CF053CF4CCFD2DC69CEA4
:100C6000E4E1F2E01382128288EE93E0A0E0B0E0CB
:100C700084839583A683B78386E092E09183808303
:100C800085EC90E09587848784EC90E09787868751
:100C900080EC90E0918B808B81EC90E0938B828B49
:100CA00082EC90E0958B848B86EC90E0978B868B22
:100CB000118E128E138E148E0895052E97FB16F446
:100CC00000940FD057FD05D014D007FC02D046F495
:100CD00008C050954095309521953F4F4F4F5F4F3D
:100CE000089590958095709561957F4F8F4F9F4F98
:100CF0000895A1E21A2EAA1BBB1BFD010DC0AA1F5D
:100D0000BB1FEE1FFF1FA217B307E407F50720F074
:100D1000A21BB30BE40BF50B661F771F881F991FEF
:100D20001A9469F760957095809590959B01AC0138
:100D3000BD01CF010895A29FB001B39FC001A39F41
:100D4000700D811D1124911DB29F700D811D112404
:100D5000911D08955058BB27AA270ED04DC13ED1F2
:100D600030F043D120F031F49F3F11F41EF433C131
:100D70000EF4E095E7FB29C1E92F4FD180F3BA17B4
:100D8000620773078407950718F071F49EF567C131
:100D90000EF4E0950B2EBA2FA02D0B01B901900196
:100DA0000C01CA01A0011124FF27591B99F0593FDA
:100DB00050F4503E68F11A16F040A22F232F342F22
:100DC0004427585FF3CF469537952795A795F04070
:100DD0005395C9F77EF41F16BA0B620B730B840B85
:100DE000BAF09150A1F0FF0FBB1F661F771F881F3D
:100DF000C2F70EC0BA0F621F731F841F48F4879595
:100E000077956795B795F7959E3F08F0B3CF939583
:100E1000880F08F09927EE0F9795879508950CD0C5
:100E2000EBC0E3D040F0DAD030F021F45F3F19F0AE
:100E3000CCC0511115C1CFC0F0D098F39923C9F39C
:100E40005523B1F3951B550BBB27AA2762177307D0
:100E5000840738F09F5F5F4F220F331F441FAA1F84
:100E6000A9F333D00E2E3AF0E0E830D09150504044
:100E7000E695001CCAF729D0FE2F27D0660F771FF2
:100E8000881FBB1F261737074807AB07B0E809F0D4
:100E9000BB0B802DBF01FF2793585F4F2AF09E3F69
:100EA000510568F092C0DCC05F3FECF3983EDCF384
:100EB000869577956795B795F7959F5FC9F7880FE2
:100EC000911D9695879597F90895E1E0660F771F34
:100ED000881FBB1F621773078407BA0720F0621BC5
:100EE000730B840BBA0BEE1F88F7E095089504D0BE
:100EF0006894B111B5C0089598D088F09F5790F0CC
:100F0000B92F9927B751A0F0D1F0660F771F881F2E
:100F1000991F1AF0BA95C9F712C0B13081F09FD06D
:100F2000B1E008959CC0672F782F8827B85F39F00B
:100F3000B93FCCF3869577956795B395D9F73EF48D
:100F400090958095709561957F4F8F4F9F4F089535
:100F5000E89409C097FB3EF4909580957095619553
:100F60007F4F8F4F9F4F9923A9F0F92F96E9BB2709
:100F70009395F695879577956795B795F111F8CF85
:100F8000FAF4BB0F11F460FF1BC06F5F7F4F8F4FF0
:100F90009F4F16C0882311F096E911C0772321F0E6
:100FA0009EE8872F762F05C0662371F096E8862F7E
:100FB00070E060E02AF09A95660F771F881FDAF7D5
:100FC000880F9695879597F9089597F99F6780E818
:100FD00070E060E008959FEF80EC089500240A948B
:100FE0001616170618060906089500240A94121604
:100FF0001306140605060895092E0394000C11F437
:10100000882352F0BB0F40F4BF2B11F460FF04C0E3
:101010006F5F7F4F8F4F9F4F089557FD9058440F3C
:10102000551F59F05F3F71F04795880F97FB991F47
:1010300061F09F3F79F08795089512161306140604
:10104000551FF2CF4695F1DF08C016161706180691
:10105000991FF1CF86957105610508940895E8946C
:10106000BB2766277727CB0197F908950BD0C4CF0C
:10107000B5DF28F0BADF18F0952309F0A6CFABCF83
:101080001124EECFCADFA0F3959FD1F3950F50E066
:10109000551F629FF001729FBB27F00DB11D639F2A
:1010A000AA27F00DB11DAA1F649F6627B00DA11DD0
:1010B000661F829F2227B00DA11D621F739FB00D76
:1010C000A11D621F839FA00D611D221F749F3327E6
:1010D000A00D611D231F849F600D211D822F762F7F
:1010E0006A2F11249F5750408AF0E1F088234AF07C
:1010F000EE0FFF1FBB1F661F771F881F91505040C8
:10110000A9F79E3F510570F060CFAACF5F3FECF387
:10111000983EDCF3869577956795B795F795E795B3
:101120009F5FC1F7FE2B880F911D9695879597F9C4
:101130000895EE0FFF1F881F8BBF0790F691E02DDB
:101140001994F9DDB7FF0895821B930B089581E090
:0A11500090E0F89400C0F894FFCF7F
:10115A003200000000009402FE012C02E0025D024F
:04116A003B024F02F3
:00000001FF
