:1000000030C100005EC100005CC100005AC10000A8
:1000100058C1000056C1000054C1000052C1000088
:1000200050C100004EC100004CC100004AC1000098
:1000300048C1000046C1000044C1000042C10000A8
:1000400040C100003EC100003CC100003AC10000B8
:1000500038C1000036C1000034C10000FFC20000FA
:1000600030C100002EC100002CC100002AC10000D8
:1000700028C1000026C1000024C1000022C10000E8
:1000800020C100001EC100001CC100001AC10000F8
:1000900018C1000016C1000014C1000029C30000EF
:1000A00010C100000EC100000CC100000AC1000018
:1000B00008C1000006C1000004C1000002C1000028
:1000C00000C10000FEC00000FCC00000FAC000003B
:1000D000F8C00000F6C00000F4C00000F2C000004C
:1000E000F0C00000740279027E02880292020B03C3
:1000F0009C02A402AC02B602C002CA02D902E30208
:100100000B03ED02F70201035405570546054A05A6
:1001100050058E055B055F05650569056D05730571
:1001200077057B058E058105850589059307990768
:10013000A307B107B307B907C307D107E307E5076B
:1001400000002100240027002A002D003000330089
:1001500001010000040107010A010000220025003E
:1001600028002B002E0031003400020100000501A0
:1001700008010B01000020002300260029002C00AC
:100180002F003200000100000301060109010505EE
:100190000505070508080808020202020A0A0808FD
:1001A000040404040101010101010101030303032B
:1001B00003030303040707070C0C0C0C0C0C0C0CBA
:1001C0000202020206060606060606060B0B0B0BCB
:1001D0000B0B0B0B010210202008081020401020F0
:1001E00040800201020108040201010204081020FB
:1001F00040808040201008040201800402018040F9
:100200002010080402010804020101020408102061
:100210004080010204081020408000000A0B0209FF
:100220000C0D0E0807030401000000000000000090
:1002300000000000000000000000000000000000BE
:10024000000000000000121110000000000000007B
:10025000000000000000000000000000000000009E
:10026000D90D11241FBECFEFD1E2DEBFCDBF00E01C
:100270000CBF13E0A0E0B2E0E2E0FEE100E00BBF63
:1002800002C007900D92A030B107D9F724E0A0E09A
:10029000B3E001C01D92A436B207E1F711E0C1E35B
:1002A000D1E000E006C021970109802FFE010E94E5
:1002B000DF0EC033D10780E00807A9F7B7D70C9449
:1002C000FF0E9ECE08950895CF92DF92EF92FF9297
:1002D0000F931F93CF93DF936C017A018B01C0E0E2
:1002E000D0E0CE15DF0581F0D8016D918D01D601EA
:1002F000ED91FC910190F081E02DC6011995892BBB
:1003000011F02196EECF7E01C701DF91CF911F91B1
:100310000F91FF90EF90DF90CF90089585ED80933F
:10032000BC008091BC0084FDFCCF1092A003089516
:1003300040914003262F30E0240F311D213231053A
:10034000DCF42091A0032430C9F4FC0180E090E0AB
:10035000861758F4309140032191DC01A05EBC4F18
:10036000A30FB11D2C930196F3CF80914003680F2A
:100370006093400380E0089581E0089582E008954D
:100380000895E091680380916703E81730F4F0E086
:10039000E050FD4F808190E008958FEF9FEF08952A
:1003A0009091680380916703981750F4E92FF0E06B
:1003B000E050FD4F208130E09F5F9093680302C0C2
:1003C0002FEF3FEFC90108958091670390E02091DE
:1003D0006803821B91090895CF92DF92EF92FF92FA
:1003E0000F931F93CF93DF937C01CB018A01209160
:1003F000A103222389F0EB016B01C40ED51ECC159D
:10040000DD0561F06991D701ED91FC910190F081DA
:10041000E02DC7011995F3CF642F8ADFC801DF9162
:10042000CF911F910F91FF90EF90DF90CF900895A3
:10043000CF93DF931F92CDB7DEB769832091A103DD
:100440002223D1F02091C303203240F021E030E09C
:10045000FC013383228380E090E014C08091A203EA
:10046000E82FF0E0ED55FC4F998190838F5F8093EA
:10047000A2038093C30304C061E0CE01019658DF5C
:1004800081E090E00F90DF91CF910895089580E092
:1004900090E00895862F642FA3C41F93CF93DF931A
:1004A000182FEB0161E065D6209711F460E004C0DD
:1004B000CF3FD10531F461E0812FDF91CF911F91C2
:1004C0008FC4E12FF0E0E65EFD4FE4918E2F90E0C7
:1004D000FC013197E231F10508F09DC08827EE5804
:1004E000FF4F8F4F0C94DF0E84B5806884BDC7BD6D
:1004F00097C084B5806284BDC8BD92C080918000E1
:10050000806880938000D0938900C093880088C061
:1005100080918000806280938000D0938B00C09394
:100520008A007EC080918000886080938000D09394
:100530008D00C0938C0074C08091B000806880935F
:10054000B000C093B3006CC08091B0008062809313
:10055000B000C093B40064C0809190008068809324
:100560009000D0939900C09398005AC08091900059
:10057000806280939000D0939B00C0939A0050C0FB
:1005800080919000886080939000D0939D00C093EC
:100590009C0046C08091A00080688093A00080915C
:1005A000A0008F7B8093A000D093A900C093A800E7
:1005B00037C08091A00080628093A000D093AB00F0
:1005C000C093AA002DC08091A00088608093A000F5
:1005D000D093AD00C093AC0023C08091200180680F
:1005E00080932001D0932901C093280119C08091E4
:1005F0002001806280932001D0932B01C0932A01B7
:100600000FC080912001886080932001D0932D013C
:10061000C0932C0105C0C038D1050CF04CCF46CF9B
:10062000DF91CF911F910895862F642FA2C5862F49
:10063000AFC30E94FB0ECF93DF931F921F92CDB7E3
:10064000DEB780E489836A83CE0101968FD281E090
:1006500090E00F900F90DF91CF9108951F920F922D
:100660000FB60F9211242F933F938F939F93AF93C5
:10067000BF938091720390917303A0917403B09122
:1006800075033091710323E0230F2D3720F4019679
:10069000A11DB11D05C026E8230F0296A11DB11DA5
:1006A000209371038093720390937303A093740358
:1006B000B09375038091760390917703A0917803AE
:1006C000B09179030196A11DB11D8093760390939B
:1006D0007703A0937803B0937903BF91AF919F9173
:1006E0008F913F912F910F900FBE0F901F901895F3
:1006F0001F920F920FB60F9211240BB60F922F93E9
:100700003F934F935F936F937F938F939F93AF9399
:10071000BF93EF93FF938091B900887F803609F4EF
:100720009CC068F5883209F45BC090F4803109F40C
:1007300054C038F4882309F4F6C0883009F44DC059
:10074000F5C0883109F44CC0803209F45DC0EEC0B8
:10075000803409F468C048F4803309F455C0883304
:1007600009F0E4C080939E03D8C0803509F44FC0DF
:10077000883509F45DC0883409F0D8C0D6C08839FE
:1007800009F4C7C0A8F4883709F467C038F488367C
:1007900009F463C0803709F460C0C8C0883809F420
:1007A000B8C0803909F45FC0803809F0BFC05BC0B1
:1007B000803B09F486C038F4803A09F466C0883A70
:1007C00009F47FC0B3C0803C09F4A7C0883C09F499
:1007D000A4C0883B09F48AC0A9C080917B0310C0E3
:1007E00090919D0380919C03981770F5E0919D0373
:1007F00081E08E0F80939D03F0E0E458FC4F8081F0
:100800008093BB0085EC86C080939E038EC0E091F0
:100810009D0381E08E0F80939D038091BB00F0E0EB
:10082000E458FC4F808390919D0380919C036EC09F
:10083000E0919D0381E08E0F80939D038091BB002A
:10084000F0E0E458FC4F808380919F0381116DC0DC
:1008500081E080937A0384EA61C083E08093A003FF
:1008600010926203CFCF80916203803208F051C0B2
:10087000E091620381E08E0F809362038091BB0060
:10088000F0E0EE5BFC4F8083BDCF85EC8093BC0035
:100890001092A00380916203803230F4E0916203F1
:1008A000F0E0EE5BFC4F10826091620370E0E0913B
:1008B0006303F091640382E493E01995109262035C
:1008C00035C084E08093A00310924103109240034E
:1008D000E0916503F09166031995809140038111C1
:1008E00005C081E08093400310922003E091410312
:1008F00081E08E0F80934103F0E0E05EFC4F808149
:100900008093BB009091410380914003981708F4B5
:1009100079CF85E88093BC0009C085EC8093BC004A
:100920001092A00303C010929E03F8DCFF91EF9198
:10093000BF91AF919F918F917F916F915F914F91F7
:100940003F912F910F900BBE0F900FBE0F901F90F5
:100950001895CF93DF931F921F92CDB7DEB790E823
:1009600099838A83CE01019601D10F900F90DF9178
:10097000CF9108953091C303313208F04BC080917C
:10098000A0038111FCCF9091630422E02093A00387
:1009900021E020939F032FEF20939E0310929D034D
:1009A00030939C03E3EAF3E0ACE7B3E020E03217D6
:1009B00021F041914D932F5FFACF10927B0320914C
:1009C0007B03990F922B90937B0390917A03913044
:1009D00061F410927A0390917B039093BB00909105
:1009E000BC0093FDF8CF95EC01C095EE9093BC0050
:1009F0009091A0039230E1F390919E039F3F79F094
:100A000080919E03803241F080919E03803331F0CB
:100A100084E005C081E003C082E001C083E0109261
:100A2000A2031092C3031092A103089596E0899F38
:100A3000D0011124A651BC4F90967C936E935F9782
:100A400091E091969C93919790915604E091570470
:100A5000F0915804992339F0309751F0811108C072
:100A60008091060404C0309719F05C968C9119941B
:100A7000089590E0FC013197E231F10508F04EC095
:100A80008827EC57FF4F8F4F0C94DF0E809180002A
:100A90008F7703C0809180008F7D809380000895C0
:100AA00080918000877FF9CF84B58F7702C084B5AD
:100AB0008F7D84BD08958091B0008F7703C08091B1
:100AC000B0008F7D8093B0000895809190008F7763
:100AD00007C0809190008F7D03C080919000877F38
:100AE0008093900008958091A0008F7707C0809137
:100AF000A0008F7D03C08091A000877F8093A0001D
:100B00000895809120018F7707C0809120018F7D0B
:100B100003C080912001877F809320010895009772
:100B200061F0FC0101900020E9F73197AF01481B0B
:100B3000590BBC0189E594E0C7CB80E090E00895B3
:100B4000CF93C62F91E09093A10392E69093630414
:100B50001092A2031092C303682F84EC93E068DC28
:100B60006C2F84EC93E064DCCF9104CFCF93DF93C0
:100B7000EC0181E08093A1038EE3809363041092E3
:100B8000A2031092C303688184EC93E051DC698175
:100B900084EC93E04DDCDF91CF91ECCE81E0D9DEA7
:100BA0008BE39FE10197F1F70895CF93DF931F92B5
:100BB0001F92CDB7DEB780E889838A83CE01019684
:100BC000D5DF0F900F90DF91CF910895A8CF8F922E
:100BD0009F92AF92BF92CF92DF92EF92FF920F93CC
:100BE0001F93CF93DF93CDB7DEB7A1970FB6F894DD
:100BF000DEBF0FBECDBF6C01990FEE08FF08F7FEF8
:100C000029C06DE289E594E016DD8C0122273327A7
:100C1000A9012C193D094E095F0919A2CE0181963F
:100C20007C019AE0892E912CA12CB12CCA01B9012A
:100C3000A50194010E94A10E605DF70162937F01FE
:100C4000211531054105510589F7CF0168DF800F76
:100C5000911F1CC0A701960119A28E010F5D1F4FA5
:100C60008AE0C82ED12CE12CF12CCA01B901A701D0
:100C700096010E94A10E605DF80162938F0121151B
:100C800031054105510589F7CF0149DFA1960FB61E
:100C9000F894DEBF0FBECDBFDF91CF911F910F91B2
:100CA000FF90EF90DF90CF90BF90AF909F908F908C
:100CB0000895CF92DF92EF92FF920F931F9396E0E9
:100CC000899FF0011124E651FC4F11A2278D30A11C
:100CD0002130310531F158F02230310509F446C098
:100CE0002330310509F04DC060E070E043C0662359
:100CF00009F447C061E070E099DE2FB7F894809165
:100D0000720390917303A0917403B09175032FBF88
:100D10008093420490934304A0934404B093450409
:100D200030C09FB7F894C0907203D0907303E090E6
:100D30007403F09075039FBF009142041091430427
:100D40002091440430914504C01AD10AE20AF30A02
:100D5000009154041091550420E030E00C151D055D
:100D60002E053F0518F462E070E004C0611109C06F
:100D700063E070E01F910F91FF90EF90DF90CF90B4
:100D800055CE1F910F91FF90EF90DF90CF90089577
:100D9000CF93DF93282F30E0F901E65EFD4F849179
:100DA000F901EC52FE4FD491F901E257FE4FC49184
:100DB000CC2389F081115DDEEC2FF0E0EE0FFF1FF8
:100DC000EC58FE4FA591B491EC91ED2381E090E0B9
:100DD00021F480E002C080E090E0DF91CF9108959F
:100DE0001F93CF93DF93282F30E0F901E65EFD4F8C
:100DF0008491F901EC52FE4FD491F901E257FE4F74
:100E0000C491CC23B9F0162F811133DEEC2FF0E022
:100E1000EE0FFF1FE65AFE4FA591B4919FB7F894CD
:100E2000111104C08C91D095D82302C0EC91DE2B17
:100E3000DC939FBFDF91CF911F910895CF93DF93F4
:100E4000EC018091D8039091D9030297F1F4C1305D
:100E5000D10569F024F42097C1F460E009C0C230E4
:100E6000D10559F0C330D10581F460E007C061E0DD
:100E70008091DC03B5DF61E005C061E08091DC03B7
:100E8000AFDF60E08091DE03ABDF8091D80390910B
:100E9000D903049709F036C0C130D105A9F044F454
:100EA000209781F561E08091DC039ADF60E011C05A
:100EB000C230D105B9F0C330D10521F561E0809190
:100EC000DC038EDF60E013C060E08091DC0388DF2C
:100ED00061E08091DE0384DF61E08091E00380DFE8
:100EE00060E00DC060E08091DC037ADF61E080911A
:100EF000DE0376DF60E08091E00372DF61E08091E5
:100F0000E2036EDF8091D8039091D903059709F031
:100F100072C0CA30D10508F06EC0FE018827EA56BB
:100F2000FF4F8F4F4CC760E08091DC0359DF61E0D9
:100F300051C060E08091DC0353DF61E08091DE030B
:100F40004FDF60E04BC060E08091DC0349DF61E08F
:100F50008091DE0345DF60E08091E00341DF61E0E6
:100F600041C060E001C061E08091DC0339DF61E0F5
:100F700005C061E08091DC0333DF60E08091DE0337
:100F80002FDF60E009C061E08091DC0329DF60E0D1
:100F90008091DE0325DF61E08091E00321DF61E0E5
:100FA0000DC061E08091DC031BDF60E08091DE0317
:100FB00017DF61E08091E00313DF60E08091E203DE
:100FC0000FDF60E013C061E001C060E08091DC03EE
:100FD00007DF60E08091DE0303DF61E08091E003E2
:100FE000FFDE60E08091E203FBDE61E08091E403DC
:100FF000DF91CF91F5CEDF91CF9108958F929F929F
:10100000AF92BF92EF92FF920F931F93CF93DF9314
:10101000EC0197FF04C0CC27DD27C81BD90B18169D
:1010200019063CF481E090E09093D1038093D003C3
:1010300006C0892B21F01092D1031092D00304E056
:1010400010E05AE0E52EF12C209709F487C03FB755
:10105000F8948091760390917703A0917803B091F2
:10106000790326B5A89B05C02F3F19F00196A11D55
:10107000B11D3FBFBA2FA92F982F8827820F911D2E
:10108000A11DB11D42E0880F991FAA1FBB1F4A95E1
:10109000D1F74091E6035091E7036091E803709126
:1010A000E9034C015D01841A950AA60AB70A40912A
:1010B000D2035091D3036091D4037091D503841669
:1010C0009506A606B70608F4BFCF8093E603909373
:1010D000E703A093E803B093E9032091D003309194
:1010E000D1038091DA039091DB032130310589F43B
:1010F00001969093DB038093DA032091D60330911D
:10110000D70382179307C1F41092DB031092DA031E
:1011100013C0892B41F48091D6039091D70390930B
:10112000DB038093DA038091DA039091DB0301976C
:101130009093DB038093DA0321972091D8033091B9
:10114000D9038091DA039091DB032530310511F446
:10115000B70101C0B801E2D571DE76CFDF91CF9142
:101160001F910F91FF90EF90BF90AF909F908F9045
:101170000895CF93DF9390E0FC01EC52FE4F249151
:10118000FC01E257FE4F8491882361F190E0880FC3
:10119000991FFC01E05CFE4FC591D491FC01E65A19
:1011A000FE4FA591B491611109C09FB7F894888151
:1011B000209582238883EC912E230BC0623061F44A
:1011C0009FB7F8948881322F309583238883EC91E0
:1011D0002E2B2C939FBF06C08FB7F894E8812E2B3F
:1011E00028838FBFDF91CF910895CF93DF93C09174
:1011F0000002D0910102CE0101DF80916B0390913A
:101200006C038C0F9D1F8430910549F08C3F2FEFAC
:10121000920729F090936C0380936B0304C01092A3
:101220006C0310926B03DF91CF910895CF93DF93FE
:1012300000D01F92CDB7DEB7789484B5826084BDAC
:1012400084B5816084BD85B5826085BD85B58160CA
:1012500085BD80916E00816080936E001092810048
:101260008091810082608093810080918100816003
:1012700080938100809180008160809380008091C4
:10128000B10084608093B1008091B0008160809350
:10129000B0008091910082608093910080919100D4
:1012A0008160809391008091900081608093900094
:1012B0008091A10082608093A1008091A100816053
:1012C0008093A1008091A00081608093A000809114
:1012D00021018260809321018091210181608093AE
:1012E00021018091200181608093200180917A000A
:1012F000846080937A0080917A00826080937A0083
:1013000080917A00816080937A0080917A00806871
:1013100080937A001092C1001092680310926703C4
:101320001092A2031092C3031092A00381E0809355
:101330009F0310927A0361E084E152DD61E085E170
:101340004FDD8091B9008E7F8093B9008091B90004
:101350008D7F8093B90088E48093B80085E4809302
:10136000BC0082E691E0909366038093650383E678
:1013700091E0909364038093630380915D04982FC0
:10138000986090935D0422E02093610410926204BF
:10139000EBE3FDE03197F1F78862DBDA8BE496E46A
:1013A0000197F1F780915D048062D3DA83E592E0E2
:1013B0000197F1F780915D048062CBDA80915D0442
:1013C0008062C7DA84E080935E048CE0C2DAE6DBF8
:1013D00032E030935F0486E0BCDA60E080E0B0DBAE
:1013E0006FEF88E0ADDB60E281E0AADB6FEF84E0C5
:1013F000A7DB6FEF83E0A4DB6FEF82E0A1DB812C42
:1014000067E8962E63E9A62E63E0B62E7AE0272ED3
:10141000312C412C512C56E2C52E54E0D52E81E0C2
:10142000809356048FB7F8944091720350917303E0
:1014300060917403709175038FBF80914604909101
:101440004704A0914804B0914904481B590B6A0B0A
:101450007B0B8091520490915304A0E0B0E084177C
:101460009507A607B70708F0F7C0198280915004C6
:101470005981581710F0712C49C0E0914C04F0913B
:101480004D048981E80FF11D62E0808172DE99814F
:101490009F5F9983EBCFE62DF0E0FC83EB83E09137
:1014A0004C04F0914D042B813C81E20FF31F8081AD
:1014B0006FDCEB81FC813496FC83EB83892B09F094
:1014C00050C0EE0FFF1FE651FC4F808191812981B2
:1014D0003A81822B932B9183808363948091500473
:1014E0006816C8F2E0914E04F0914F04E00FF11F2E
:1014F00061E0808175DC80914E0490914F04FC0185
:10150000E00FF11F60E0808134DE7394809151041C
:10151000781690F5072D10E0E0914E04F0914F04FD
:10152000E00FF11F61E0808124DEE0914E04F09134
:101530004F04E00FF11F60E0808152DC81E090E019
:10154000A0E0B0E0072C04C0880F991FAA1FBB1FA2
:101550000A94D2F79A8389837C01E094F094612CF9
:10156000BDCFEB81FC81EE0FFF1FE651FC4F808168
:1015700091818E219F21AFCF0AEE13E0F801878D74
:1015800090A1892B31F4148E2FEF3FEF368F258FEA
:1015900011A23696CE16DF0691F7F12C80915004F9
:1015A000F81670F5E12C8F2D90E0880F991F8E5062
:1015B0009C4F9A83898320915104E216F8F4E981C3
:1015C000FA81408151810E2C02C0569547950A94AC
:1015D000E2F7642F6170F29E900111242E0D311DEF
:1015E000EAEEF3E080E0A58DB68D2A173B0709F4FB
:1015F000D7C28F5F36968A30B1F7B5C2F394CECF9B
:1016000020E0F80181A1811121E00A5F1F4FC0167F
:10161000D106B9F73FB7F8948091720390917303A4
:10162000A0917403B09175033FBF809346049093DB
:101630004704A0934804B0934904222369F08091A1
:101640000B04882349F08091090490910A040197C2
:1016500019F48091060403C01092560480E0809330
:1016600006028033D1F49ADA82E492E0AFDA9DDAAE
:101670001092700310926F0310926E0310926D031C
:1016800060E070E0809104020E944D0260E070E032
:10169000809102020E944D021FC08A3271F47EDAEC
:1016A00084E592E093DA81DA90916E0381E08927F4
:1016B00080936E0310926D030FC0833269F46EDA6B
:1016C00082E792E083DA71DA90916D0381E08927F5
:1016D00080936D0310926E0380916E03882309F44A
:1016E000A8C1809106028133A9F458DA8AE892E011
:1016F0006DDA5BDA2091D6033091D703032E000C0C
:10170000440B550BC501B4013ED3CA01B901A20176
:10171000910118C0823301F541DA87E992E056DA87
:1017200044DA2091D6033091D703032E000C440BEA
:10173000550BC501B40127D3CA01B90128E230E035
:1017400040E050E020D32093D2033093D303409362
:10175000D4035093D50341C18333B9F41FDA84EA2B
:1017600092E034DA22DA2091D6033091D703032EA7
:10177000000C440B550BC501B40105D3CA01B901D6
:101780002BE430E040E050E0DDCF843309F045C089
:1017900005DA81EB92E01ADA08DA80910002909182
:1017A0000102919581959109909301028093000225
:1017B00080916B0390916C03009709F40EC1813006
:1017C000910519F48DEF9FEF05C08230910539F432
:1017D0008EEF9FEF90936C0380936B03FEC083307A
:1017E000910519F42FEF3FEF13C08D3F3FEF9307A3
:1017F00019F481E090E0EECF8E3F5FEF950719F48A
:1018000082E090E0E7CF019609F0E7C023E030E006
:1018100030936C0320936B03E0C0853349F4BED949
:1018200088EC92E0D3D9C1D981E080937003D5C010
:10183000863331F4B3D983ED92E0C8D9B6D96BC001
:10184000873309F051C0AAD98BED92E0BFD9ADD949
:1018500080910002909101028130910551F58091B3
:101860006B0390916C039A838983892B09F453C08D
:1018700095D989819A81ABD998D9E0910002F091EC
:101880000102FA83E983CF01B9DB80916B03909168
:101890006C0329813A81280F391F30936C03209300
:1018A0006B0324303105D9F610926C0310926B0350
:1018B000D6CF019681F580916B0390916C039A834A
:1018C0008983892B41F18FEF9FEF98DBE981FA81C2
:1018D0003197F0936C03E0936B03349661F71092A9
:1018E0006C0310926B03E7CF883309F03EC056D9E2
:1018F00086EE92E06BD959D9809100029091010255
:1019000081309105E1F480916B0390916C039A838F
:101910008983019719F4109270035FC081E090E011
:101920006DDBE981FA813196F0936C03E0936B03F0
:10193000349749F710926C0310926B03E4CF019631
:1019400051F720916B0330916C033A8329832D3F2B
:101950003F4F09F38FEF9FEF51DB89819A81019708
:1019600090936C0380936B03ECCF8933B1F516D958
:1019700082EF92E02BD919D9809100029091010257
:101980008130910581F480916B0390916C038230DA
:10199000910509F4C0CF81309105E9F083309105BC
:1019A000B1F423DC17C0019609F0B5CF80916B0329
:1019B00090916C038E3FFFEF9F0709F4ACCF8F3FF0
:1019C0002FEF920741F08D3F3FEF930751F3892BA3
:1019D00009F0A1CF0ADC09DC9ECF80917003882337
:1019E00041F1DCD880916B0390916C03F0D8DDD885
:1019F00080910002909101029A838983FFDA80919D
:101A00006B0390916C03E981FA81E80FF91FFA8367
:101A1000E983E430F10549F0EC3F2FEFF20729F0BC
:101A2000F0936C03E0936B0304C010926C0310926C
:101A30006B0380916D03882309F48DC080910602A9
:101A4000813341F4ABD88AE892E0C0D8AED880E4C4
:101A500090E009C0823361F4A1D887E992E0B6D85A
:101A6000A4D880E890E090936A03809369033CC017
:101A7000833341F493D884EA92E0A8D896D88FEFC4
:101A800090E0F1CF8433B1F489D881EB92E09ED815
:101A90008CD880910402909105022091020230912D
:101AA0000302309305022093040290930302809373
:101AB00002021AC0853349F471D888EC92E086D8C6
:101AC00074D881E080936F030FC0863369F466D8C1
:101AD00083ED92E07BD869D860E070E080910402E9
:101AE0000E944D0210926F0380916F03882371F062
:101AF0006091690370916A03809104020E944D0213
:101B000060E070E0809102020E944D0280917003BB
:101B1000882309F180910002909101029A838983C0
:101B20006DDA80916B0390916C03E981FA81E80F83
:101B3000F91FFA83E983E430F10549F0EC3F2FEF18
:101B4000F20729F0F0936C03E0936B0304C010924A
:101B50006C0310926B0380E090E0892B09F45FCC5A
:101B60000E94000058CC40FF1CC0EAEEF3E080E089
:101B700090E0448D411117C0E0914A04F0914B046C
:101B8000E20FF31F408156E0589FF001599FF00D7E
:101B90001124E651FC4F448F368F258F10A2178EEB
:101BA00088D8E39408CD019636968A30910509F7D6
:101BB000F8CFCF93DF931092C7031092C60388EE3D
:101BC00093E0A0E0B0E08093C8039093C903A09392
:101BD000CA03B093CB038EE192E09093C503809348
:101BE000C40310925C0410925B048AE392E0909329
:101BF0005A04809359041092EC031092F00310924F
:101C0000EF031092F10380E392E09093EB03809353
:101C1000EA03EAEEF3E0148E10A2178E11A23696B4
:101C200084E0E632F807B9F78AE092E090934D0439
:101C300080934C0487E092E090934F0480934E048D
:101C400084E08093500483E0809351048EE092E01E
:101C500090934B0480934A048AE090E0909353045D
:101C60008093520484EF91E0909355048093540440
:101C70001092580410925704109246041092470490
:101C80001092480410924904109256041092DB03FB
:101C90001092DA031092D1031092D0031092E6034F
:101CA0001092E7031092E8031092E903C4E0D0E039
:101CB000D093D703C093D60382E390E09093DD03E3
:101CC0008093DC0383E390E09093DF038093DE0353
:101CD00084E390E09093E1038093E00385E390E058
:101CE0009093E3038093E20361E082E342DA61E0F0
:101CF0008091DE033EDA61E08091E0033ADA61E050
:101D00008091E20336DA1092E5031092E403D09357
:101D1000D903C093D803DF91CF91089597FB072E85
:101D200016F4009406D077FD08D051D007FC05D0FA
:101D30003EF4909581959F4F0895709561957F4FE2
:101D40000895A1E21A2EAA1BBB1BFD010DC0AA1FFC
:101D5000BB1FEE1FFF1FA217B307E407F50720F014
:101D6000A21BB30BE40BF50B661F771F881F991F8F
:101D70001A9469F760957095809590959B01AC01D8
:101D8000BD01CF010895052E97FB16F400940FD0E6
:101D900057FD05D0D6DF07FC02D046F408C05095A9
:101DA0004095309521953F4F4F4F5F4F0895909547
:101DB0008095709561957F4F8F4F9F4F0895EE0FDF
:101DC000FF1F881F8BBF0790F691E02D1994AA1B67
:101DD000BB1B51E107C0AA1FBB1FA617B70710F016
:101DE000A61BB70B881F991F5A95A9F78095909548
:101DF000BC01CD01089581E090E0F89400C0F89412
:021E0000FFCF12
:101E020001000A000B00302324252221201F313239
:101E1200333435363738392A3023000000001802AF
:101E2200EC014702C001E401D001C1010000000041
:101E320014034A021703000000001B036401470257
:101E42004602302E2050617261646120666F7263B7
:101E5200616461002A2E204D6F746F7220646520C8
:101E6200706173736F2073656C6563696F6E616413
:101E72006F00232E204D6F746F72204443207365D0
:101E82006C6563696F6E61646F00312E2056656CFC
:101E92002E204D696E2E00322E2056656C2E204D5E
:101EA20065642E00332E2056656C2E204D61782EEF
:101EB20000342E20496E76657273616F206465204E
:101EC20053656E7469646F00352E2052756E6E69AB
:101ED2006E6700362E2053746F7000372E2030202C
:101EE200677261757300382E203930206772617510
:101EF2007300392E2031383020677261757300000B
:00000001FF
