:1000000026C100007BC500004EC5000021C50000D0
:10001000F4C40000C7C400009AC400006DC400000E
:1000200040C4000044C1000042C1000040C10000C3
:100030003EC100003CC100003AC1000038C10000D0
:1000400036C1000034C1000032C1000030C10000E0
:10005000B1C600002CC100002AC10000D8C30000B6
:1000600026C1000024C1000022C1000020C1000000
:100070001EC100001CC100001AC1000018C1000010
:1000800016C1000014C1000012C1000010C1000020
:100090000EC100000CC100000AC100005AC50000DA
:1000A00006C1000004C1000002C1000000C1000040
:1000B000FEC00000FCC00000FAC00000F8C0000054
:1000C000F6C00000F4C00000F2C00000F0C0000064
:1000D000EEC00000ECC00000EAC00000E8C0000074
:1000E000E6C00000CF01D201C101C501CB01090268
:1000F000D601DA01E001E401E801EE01F201F601C6
:100100000902FC010002040215091A091F09290944
:100110003309AC093D0945094D09570961096B09C6
:100120007A098409AC098E099809A2090000210006
:10013000240027002A002D003000330001010000B8
:10014000040107010A0100002200250028002B00FD
:100150002E003100340002010000050108010B01EE
:10016000000020002300260029002C002F00320070
:100170000001000003010601090105050505070549
:1001800008080808020202020A0A08080404040413
:10019000010101010101010103030303030303033F
:1001A000040707070C0C0C0C0C0C0C0C02020202CE
:1001B00006060606060606060B0B0B0B0B0B0B0BB7
:1001C0000102102020080810204010204080020169
:1001D000020108040201010204081020408080404E
:1001E000201008040201800402018040201008044D
:1001F00002010804020101020408102040800102EB
:1002000004081020408000000A0B02090C0D0E08A3
:1002100007030401000000000000000000000000CF
:1002200000000000000000000000000000000000CE
:10023000000012111000000000000000000000008B
:10024000000000000000000000000000050711246D
:100250001FBECFEFD1E2DEBFCDBF00E00CBF12E08A
:10026000A0E0B2E0ECE1F4E100E00BBF02C00790D7
:100270000D92A437B107D9F723E0A4E7B2E001C09B
:100280001D92A835B207E1F711E0C7E2D1E000E026
:1002900006C021970109802FFE010E94000AC63284
:1002A000D10780E00807A9F7C9D50C940C0AA8CE9D
:1002B00030914103313208F04BC080911D03811110
:1002C000FCCF9091400322E020931D0321E0209376
:1002D0001C032FEF20931B0310921A033093190372
:1002E000E0E2F3E0A9EFB2E020E0321721F0419123
:1002F0004D932F5FFACF1092F8022091F802990FD8
:10030000922B9093F8029091F702913061F4109241
:10031000F7029091F8029093BB009091BC0093FD7E
:10032000F8CF95EC01C095EE9093BC0090911D0321
:100330009230E1F390911B039F3F79F080911B0372
:10034000803241F080911B03803331F084E005C09E
:1003500081E003C082E001C083E010921F0310928D
:10036000410310921E03089590E0FC013197E231A1
:10037000F10508F04EC08827EE58FF4F8F4F0C94C0
:10038000000A809180008F7703C0809180008F7D6C
:1003900080938000089580918000877FF9CF84B595
:1003A0008F7702C084B58F7D84BD08958091B000A1
:1003B0008F7703C08091B0008F7D8093B000089547
:1003C000809190008F7707C0809190008F7D03C04F
:1003D00080919000877F8093900008958091A00085
:1003E0008F7707C08091A0008F7D03C08091A0000F
:1003F000877F8093A0000895809120018F7707C0A8
:10040000809120018F7D03C080912001877F8093A0
:1004100020010895CF93DF93282F30E0F901EA5FA0
:10042000FD4F8491F901E054FE4FD491F901E65853
:10043000FE4FC491CC2389F0811196DFEC2FF0E0C0
:10044000EE0FFF1FE05AFE4FA591B491EC91ED2302
:1004500081E090E021F480E002C080E090E0DF9154
:10046000CF9108951F93CF93DF93282F30E0F901A8
:10047000EA5FFD4F8491F901E054FE4FD491F901F8
:10048000E658FE4FC491CC23B9F0162F81116CDFD2
:10049000EC2FF0E0EE0FFF1FEA5BFE4FA591B49149
:1004A0009FB7F894111104C08C91D095D82302C045
:1004B000EC91DE2BDC939FBFDF91CF911F910895CC
:1004C000CF93DF9390E0FC01E054FE4F2491FC01B8
:1004D000E658FE4F8491882361F190E0880F991FC0
:1004E000FC01E45DFE4FC591D491FC01EA5BFE4F37
:1004F000A591B491611109C09FB7F89488812095A6
:1005000082238883EC912E230BC0623061F49FB765
:10051000F8948881322F309583238883EC912E2B99
:100520002C939FBF06C08FB7F894E8812E2B2883A9
:100530008FBFDF91CF9108958DE06CDF61E0682778
:100540008DE090CF089508950895CF92DF92EF92B5
:10055000FF920F931F93CF93DF936C017A018B016E
:10056000C0E0D0E0CE15DF0581F0D8016D918D019E
:10057000D601ED91FC910190F081E02DC601199515
:10058000892B11F02196EECF7E01C701DF91CF912B
:100590001F910F91FF90EF90DF90CF90089585ED20
:1005A0008093BC008091BC0084FDFCCF10921D03A1
:1005B00008954091B402262F30E0240F311D2132DE
:1005C0003105DCF420911D032430C9F4FC0180E0E6
:1005D00090E0861758F43091B4022191DC01AC56BA
:1005E000BD4FA30FB11D2C930196F3CF8091B402A0
:1005F000680F6093B40280E0089581E0089582E07E
:1006000008950895E091DC028091DB02E81730F450
:10061000F0E0EC58FD4F808190E008958FEF9FEF60
:1006200008959091DC028091DB02981750F4E92F35
:10063000F0E0EC58FD4F208130E09F5F9093DC02AA
:1006400002C02FEF3FEFC90108958091DB0290E0D7
:100650002091DC02821B91090895CF92DF92EF92E4
:10066000FF920F931F93CF93DF937C01CB018A01FD
:1006700020911E03222389F0EB016B01C40ED51ECD
:10068000CC15DD0561F06991D701ED91FC910190E8
:10069000F081E02DC7011995F3CF642F8ADFC801DF
:1006A000DF91CF911F910F91FF90EF90DF90CF904E
:1006B0000895CF93DF931F92CDB7DEB76983209162
:1006C0001E032223D1F020914103203240F021E08B
:1006D00030E0FC013383228380E090E014C08091FD
:1006E0001F03E82FF0E0E05EFC4F998190838F5F5D
:1006F00080931F038093410304C061E0CE01019603
:1007000058DF81E090E00F90DF91CF910895CF9373
:10071000C62F91E090931E0392E6909340031092AF
:100720001F0310924103682F82E493E0C2DF6C2F15
:1007300082E493E0BEDFCF91BBCDCF93DF93EC019A
:1007400081E080931E038EE38093400310921F0389
:1007500010924103688182E493E0ABDF698182E417
:1007600093E0A7DFDF91CF91A3CDCF93DF931F92CB
:100770001F92CDB7DEB790E899838A83CE010196A8
:10078000DCDF0F900F90DF91CF91089581E0EDDFD6
:100790008BE39FE10197F1F70895CF93DF931F92C9
:1007A0001F92CDB7DEB780E489836A83CE010196BC
:1007B000C4DF81E090E00F900F90DF91CF9108951A
:1007C000089580E090E00895009761F0FC010190A9
:1007D0000020E9F73197AF01481B590BBC018EE4AB
:1007E00093E0B3CE80E090E008951092EC0281E0B7
:1007F0008093ED021092E7021092EB021092EA024F
:1008000061E08BE05DDE60E08BE02CCE01D61F92D4
:100810000F920FB60F9211242F933F938F939F93B4
:10082000AF93BF938091F3029091F402A091F502EF
:10083000B091F6023091F20223E0230F2D3720F41D
:100840000196A11DB11D05C026E8230F0296A11D2A
:10085000B11D2093F2028093F3029093F402A093CF
:10086000F502B093F6028091EE029091EF02A09112
:10087000F002B091F1020196A11DB11D8093EE022C
:100880009093EF02A093F002B093F102BF91AF9169
:100890009F918F913F912F910F900FBE0F901F90BE
:1008A00018951F920F920FB60F9211240BB60F924C
:1008B0002F933F934F935F936F937F938F939F9368
:1008C000AF93BF93EF93FF93E0910E02F0910F026D
:1008D0001995FF91EF91BF91AF919F918F917F916A
:1008E0006F915F914F913F912F910F900BBE0F90A1
:1008F0000FBE0F901F9018951F920F920FB60F9278
:1009000011240BB60F922F933F934F935F936F93E6
:100910007F938F939F93AF93BF93EF93FF93E09158
:100920000C02F0910D021995FF91EF91BF91AF91DB
:100930009F918F917F916F915F914F913F912F91F7
:100940000F900BBE0F900FBE0F901F9018951F9227
:100950000F920FB60F9211240BB60F922F933F9365
:100960004F935F936F937F938F939F93AF93BF93B7
:10097000EF93FF93E0910202F09103021995FF912A
:10098000EF91BF91AF919F918F917F916F915F9107
:100990004F913F912F910F900BBE0F900FBE0F9074
:1009A0001F9018951F920F920FB60F9211240BB63D
:1009B0000F922F933F934F935F936F937F938F93F8
:1009C0009F93AF93BF93EF93FF93E0910002F09159
:1009D00001021995FF91EF91BF91AF919F918F9176
:1009E0007F916F915F914F913F912F910F900BBE2F
:1009F0000F900FBE0F901F9018951F920F920FB679
:100A00000F9211240BB60F922F933F934F935F9346
:100A10006F937F938F939F93AF93BF93EF93FF93C6
:100A2000E0910A02F0910B021995FF91EF91BF91AD
:100A3000AF919F918F917F916F915F914F913F9176
:100A40002F910F900BBE0F900FBE0F901F90189517
:100A50001F920F920FB60F9211240BB60F922F9385
:100A60003F934F935F936F937F938F939F93AF9336
:100A7000BF93EF93FF93E0910802F091090219955B
:100A8000FF91EF91BF91AF919F918F917F916F9166
:100A90005F914F913F912F910F900BBE0F900FBE22
:100AA0000F901F9018951F920F920FB60F9211245E
:100AB0000BB60F922F933F934F935F936F937F9358
:100AC0008F939F93AF93BF93EF93FF93E0910602B1
:100AD000F09107021995FF91EF91BF91AF919F910E
:100AE0008F917F916F915F914F913F912F910F90D7
:100AF0000BBE0F900FBE0F901F9018951F920F9274
:100B00000FB60F9211240BB60F922F933F934F9372
:100B10005F936F937F938F939F93AF93BF93EF9365
:100B2000FF93E0910402F09105021995FF91EF9176
:100B3000BF91AF919F918F917F916F915F914F91F5
:100B40003F912F910F900BBE0F900FBE0F901F90F3
:100B500018951F920F920FB60F9211240BB60F9299
:100B60002F933F934F935F936F937F938F939F93B5
:100B7000AF93BF93EF93FF938091B900887F803646
:100B800009F49CC068F5883209F45BC090F48031A8
:100B900009F454C038F4882309F4F6C0883009F405
:100BA0004DC0F5C0883109F44CC0803209F45DC0F5
:100BB000EEC0803409F468C048F4803309F455C0AD
:100BC000883309F0E4C080931B03D8C0803509F452
:100BD0004FC0883509F45DC0883409F0D8C0D6C04C
:100BE000883909F4C7C0A8F4883709F467C038F415
:100BF000883609F463C0803709F460C0C8C08838FB
:100C000009F4B8C0803909F45FC0803809F0BFC06A
:100C10005BC0803B09F486C038F4803A09F466C0B2
:100C2000883A09F47FC0B3C0803C09F4A7C0883C6F
:100C300009F4A4C0883B09F48AC0A9C08091F802D5
:100C400010C090911A0380911903981770F5E091E4
:100C50001A0381E08E0F80931A03F0E0E750FD4FF6
:100C600080818093BB0085EC86C080931B038EC07F
:100C7000E0911A0381E08E0F80931A038091BB00EC
:100C8000F0E0E750FD4F808390911A0380911903A3
:100C90006EC0E0911A0381E08E0F80931A03809159
:100CA000BB00F0E0E750FD4F808380911C03811171
:100CB0006DC081E08093F70284EA61C083E0809395
:100CC0001D031092D602CFCF8091D602803208F059
:100CD00051C0E091D60281E08E0F8093D6028091C0
:100CE000BB00F0E0EA54FD4F8083BDCF85EC8093DC
:100CF000BC0010921D038091D602803230F4E09146
:100D0000D602F0E0EA54FD4F10826091D60270E006
:100D1000E091D702F091D80286EB92E019951092FB
:100D2000D60235C084E080931D031092B502109264
:100D3000B402E091D902F091DA0219958091B402DF
:100D4000811105C081E08093B40210929402E09179
:100D5000B50281E08E0F8093B502F0E0EC56FD4FB6
:100D600080818093BB009091B5028091B402981766
:100D700008F479CF85E88093BC0009C085EC8093A6
:100D8000BC0010921D0303C010921B0308DCFF91EE
:100D9000EF91BF91AF919F918F917F916F915F91F3
:100DA0004F913F912F910F900BBE0F900FBE0F9060
:100DB0001F9018951F920F920FB60F9211240BB629
:100DC0000F922F933F934F935F936F937F938F93E4
:100DD0009F93AF93BF93EF93FF93E091E102F09164
:100DE000E2021995FF91EF91BF91AF919F918F9181
:100DF0007F916F915F914F913F912F910F900BBE1B
:100E00000F900FBE0F901F901895E2E4F3E013824D
:100E1000128288EE93E0A0E0B0E084839583A683FD
:100E2000B78384E192E091838083EEE4F3E0138260
:100E3000128286E292E0918380830895789484B54B
:100E4000826084BD84B5816084BD85B5826085BDC6
:100E500085B5816085BD80916E00816080936E0054
:100E60001092810080918100826080938100809146
:100E700081008160809381008091800081608093F7
:100E800080008091B10084608093B1008091B000B7
:100E900081608093B0008091910082608093910086
:100EA0008091910081608093910080919000816099
:100EB000809390008091A10082608093A100809136
:100EC000A10081608093A1008091A0008160809347
:100ED000A0008091210182608093210180912101F5
:100EE00081608093210180912001816080932001A5
:100EF00080917A00846080937A0080917A00826089
:100F000080937A0080917A00816080937A0080914A
:100F10007A00806880937A001092C1001092DC02FF
:100F20001092DB0210921F031092410310921D03D6
:100F3000D1E0D0931C031092F70261E084E192DAD1
:100F400061E085E18FDA8091B9008E7F8093B900EE
:100F50008091B9008D7F8093B90088E48093B800B8
:100F600085E48093BC0082EA92E09093DA02809359
:100F7000D90283EA92E09093D8028093D7028091BD
:100F80005203982F986090935203C2E0C093560387
:100F900010925703EBE3FDE03197F1F78862E5DB50
:100FA0008BE496E40197F1F7809152038062DDDBD8
:100FB00083E592E00197F1F7809152038062D5DBDF
:100FC000809152038062D1DB84E0809353038CE0F4
:100FD000CCDBDCDBC093540386E0C7DB60E080E061
:100FE00096DB6FEF88E093DB60E281E090DB6FEFF0
:100FF00084E08DDB6FEF83E08ADB6FEF82E087DBDD
:1010000085EF93E0909301028093000280916A0043
:10101000836080936A00EC9A60E085E051DA60E0DA
:1010200083E04EDA60E086E04BDA60E087E048DAA1
:1010300060E088E045DA60E089E042DA61E08BE078
:101040003FDA61E08DE03CDA1092800080E180932D
:101050008100C093DF028FB78093E002F8948BE1A8
:1010600091E49093DE028093DD0290938700809359
:1010700086008091E0028FBF80918100887F8093FD
:101080008100909181008091DF02982B90938100E4
:101090002CE932E03093E2022093E102D0936F001A
:1010A00090918100892B8093810091E1692E92E0DB
:1010B000792E09E910E026E6E22EF12C30E8C32E65
:1010C000D12C43E3A42EB12C5524539480E0882ED8
:1010D00080E0982E1092ED028091EC02811109C0FF
:1010E00085E098D921E0892B09F420E02093EC02D7
:1010F000F3CF8091EA029091EB02892B69F446DBF1
:101100008EE292E061DB8091EA029091EB0201961F
:101110009093EB028093EA028091E902811112C060
:101120008091ED02882329F031DB89E392E04CDBEA
:1011300009C088E06FD921E0892B09F420E02093D1
:10114000E902EACF4090E902442009F44EC18091BF
:10115000ED0281114AC11ADB82E492E035DB109284
:10116000E8028091E802811137C0C091ED02CC23E2
:1011700029F00CDB89E392E027DB2EC083E04AD91B
:10118000892B39F186E046D9EC0181E0209709F4FA
:1011900080E08093E30287E03DD9CD2B39F4892BA1
:1011A00061F4B092E502A092E40210C0892B51F4E0
:1011B000F092E502E092E40209C0D092E502C0920A
:1011C000E40204C01093E5020093E4025092E702A7
:1011D000C42DC093E802C5CF8091E702882309F4AB
:1011E000C0C08091ED028111BCC0C091E402D091D9
:1011F000E50261E08BE064D9209711F460E004C05F
:10120000CF3FD10521F461E08BE02CD9AAC0F301D6
:10121000849190E0FC013197E231F10508F09CC027
:101220008827EC57FF4F8F4FEBC084B5806884BD93
:10123000C7BD97C084B5806284BDC8BD92C080918F
:101240008000806880938000D0938900C0938800DC
:1012500088C080918000806280938000D0938B0052
:10126000C0938A007EC08091800088608093800057
:10127000D0938D00C0938C0074C08091B0008068C2
:101280008093B000C093B3006CC08091B0008062C6
:101290008093B000C093B40064C0809190008068D7
:1012A00080939000D0939900C09398005AC0809189
:1012B0009000806280939000D0939B00C0939A002E
:1012C00050C080919000886080939000D0939D00E2
:1012D000C0939C0046C08091A00080688093A000CD
:1012E0008091A0008F7B8093A000D093A900C09331
:1012F000A80037C08091A00080628093A000D093A6
:10130000AB00C093AA002DC08091A000886080939C
:10131000A000D093AD00C093AC0023C08091200109
:10132000806880932001D0932901C093280119C0BF
:1013300080912001806280932001D0932B01C09383
:101340002A010FC080912001886080932001D093F2
:101350002D01C0932C0105C0C038D1050CF053CF2E
:101360004DCF8091ED02882321F010DA89E392E0DD
:1013700003C00CDA84E592E027DA8091E60281115D
:1013800012C08091ED02882329F000DA89E392E00F
:101390001BDA09C089E03ED821E0892B09F420E05E
:1013A0002093E602EACF8091E6028823B1F0809193
:1013B000ED02811112C0EAD98DE592E005DA61E013
:1013C0008BE07ED860E08BE04DD8E0D98AE692E0F1
:1013D000FBD91092E9021092E6028091ED02882377
:1013E00021F0D4D989E392E0EFD91092E90210926A
:1013F000E6028114910409F46DCE0E94000064CECF
:10140000EE0FFF1F881F8BBF0790F691E02D1994F8
:0C14100081E090E0F89400C0F894FFCF59
:10141C00A402A402A402A402A402A402A402A40290
:10142C000000000059032D03E10301032503110300
:10143C00020300000000CD03A502E103E0035455B4
:10144C00524E4544204F4E210053544F505045446A
:10145C002100454E5452415220434F442E205645B4
:10146C004C2E2100524F44414E444F210046494DD1
:10147C00204441205045434121004E4F56412050BD
:04148C004543410093
:00000001FF
